{
  "contractName": "Faucet",
  "abi": [
    {
      "inputs": [],
      "stateMutability": "payable",
      "type": "constructor",
      "payable": true
    },
    {
      "anonymous": false,
      "inputs": [
        {
          "indexed": true,
          "internalType": "address",
          "name": "account",
          "type": "address"
        },
        {
          "indexed": false,
          "internalType": "uint256",
          "name": "amount",
          "type": "uint256"
        }
      ],
      "name": "Withdraw",
      "type": "event"
    },
    {
      "stateMutability": "payable",
      "type": "receive",
      "payable": true
    },
    {
      "inputs": [
        {
          "internalType": "uint256",
          "name": "amount",
          "type": "uint256"
        },
        {
          "internalType": "address",
          "name": "account",
          "type": "address"
        }
      ],
      "name": "withdraw",
      "outputs": [],
      "stateMutability": "nonpayable",
      "type": "function"
    }
  ],
  "bytecode": "0x60806040526103c5806100136000396000f3fe6080604052600436106100215760003560e01c8062f714ce1461002d57610028565b3661002857005b600080fd5b34801561003957600080fd5b50610054600480360381019061004f9190610216565b610056565b005b67016345785d8a00008211156100a1576040517f08c379a0000000000000000000000000000000000000000000000000000000008152600401610098906102d9565b60405180910390fd5b478211156100e4576040517f08c379a00000000000000000000000000000000000000000000000000000000081526004016100db90610345565b60405180910390fd5b8073ffffffffffffffffffffffffffffffffffffffff166108fc839081150290604051600060405180830381858888f1935050505015801561012a573d6000803e3d6000fd5b508073ffffffffffffffffffffffffffffffffffffffff167f884edad9ce6fa2440d8a54cc123490eb96d2768479d49ff9c7366125a9424364836040516101719190610374565b60405180910390a25050565b600080fd5b6000819050919050565b61019581610182565b81146101a057600080fd5b50565b6000813590506101b28161018c565b92915050565b600073ffffffffffffffffffffffffffffffffffffffff82169050919050565b60006101e3826101b8565b9050919050565b6101f3816101d8565b81146101fe57600080fd5b50565b600081359050610210816101ea565b92915050565b6000806040838503121561022d5761022c61017d565b5b600061023b858286016101a3565b925050602061024c85828601610201565b9150509250929050565b600082825260208201905092915050565b7f706c6561736520646f206e6f7420636c61696d206f76657220302e312065746860008201527f6572206f6e652074696d65210000000000000000000000000000000000000000602082015250565b60006102c3602c83610256565b91506102ce82610267565b604082019050919050565b600060208201905081810360008301526102f2816102b6565b9050919050565b7f74686520636f6e747261637420686173206e6f206d6f6e657921000000000000600082015250565b600061032f601a83610256565b915061033a826102f9565b602082019050919050565b6000602082019050818103600083015261035e81610322565b9050919050565b61036e81610182565b82525050565b60006020820190506103896000830184610365565b9291505056fea264697066735822122083a4e00b13a2b21ac02ed4c7d36e031f91987bf92e684e056bc21c33ec428c2c64736f6c63430008110033",
  "immutableReferences": {},
  "source": "pragma solidity ^0.8.13;\n\ncontract Faucet{\n    event Withdraw(address indexed account, uint amount);\n\n    function withdraw(uint amount, address account) public {\n        require (amount <= 0.1 ether, \"please do not claim over 0.1 ether one time!\");\n        require (amount <= address(this).balance, \"the contract has no money!\");\n        payable(account).transfer(amount);\n        emit Withdraw(account, amount);\n    }\n    constructor() payable{}\n    receive() external payable {}\n}",
  "sourcePath": "/home/wutianqi/PycharmProjects/myNFT/contracts/Faucet.sol",
  "compiler": {
    "name": "solc",
    "version": "0.8.17+commit.8df45f5f.Emscripten.clang"
  },
  "schemaVersion": "3.4.9",
  "updatedAt": "2023-04-09T03:28:22.419Z",
  "networkType": "ethereum",
  "devdoc": {
    "kind": "dev",
    "methods": {},
    "version": 1
  },
  "userdoc": {
    "kind": "user",
    "methods": {},
    "version": 1
  }
}