{
  "contractName": "MyNFT",
  "abi": [
    {
      "anonymous": false,
      "inputs": [
        {
          "indexed": true,
          "internalType": "address",
          "name": "owner",
          "type": "address"
        },
        {
          "indexed": true,
          "internalType": "address",
          "name": "spender",
          "type": "address"
        },
        {
          "indexed": true,
          "internalType": "uint256",
          "name": "id",
          "type": "uint256"
        }
      ],
      "name": "Approval",
      "type": "event"
    },
    {
      "anonymous": false,
      "inputs": [
        {
          "indexed": true,
          "internalType": "address",
          "name": "owner",
          "type": "address"
        },
        {
          "indexed": true,
          "internalType": "address",
          "name": "operator",
          "type": "address"
        },
        {
          "indexed": false,
          "internalType": "bool",
          "name": "approved",
          "type": "bool"
        }
      ],
      "name": "ApprovalForAll",
      "type": "event"
    },
    {
      "anonymous": false,
      "inputs": [
        {
          "indexed": true,
          "internalType": "address",
          "name": "from",
          "type": "address"
        },
        {
          "indexed": true,
          "internalType": "address",
          "name": "to",
          "type": "address"
        },
        {
          "indexed": true,
          "internalType": "uint256",
          "name": "id",
          "type": "uint256"
        }
      ],
      "name": "Transfer",
      "type": "event"
    },
    {
      "inputs": [
        {
          "internalType": "address",
          "name": "spender",
          "type": "address"
        },
        {
          "internalType": "uint256",
          "name": "id",
          "type": "uint256"
        }
      ],
      "name": "approve",
      "outputs": [],
      "stateMutability": "nonpayable",
      "type": "function"
    },
    {
      "inputs": [
        {
          "internalType": "address",
          "name": "owner",
          "type": "address"
        }
      ],
      "name": "balanceOf",
      "outputs": [
        {
          "internalType": "uint256",
          "name": "",
          "type": "uint256"
        }
      ],
      "stateMutability": "view",
      "type": "function",
      "constant": true
    },
    {
      "inputs": [
        {
          "internalType": "uint256",
          "name": "id",
          "type": "uint256"
        }
      ],
      "name": "getApproved",
      "outputs": [
        {
          "internalType": "address",
          "name": "",
          "type": "address"
        }
      ],
      "stateMutability": "view",
      "type": "function",
      "constant": true
    },
    {
      "inputs": [
        {
          "internalType": "address",
          "name": "",
          "type": "address"
        },
        {
          "internalType": "address",
          "name": "",
          "type": "address"
        }
      ],
      "name": "isApprovedForAll",
      "outputs": [
        {
          "internalType": "bool",
          "name": "",
          "type": "bool"
        }
      ],
      "stateMutability": "view",
      "type": "function",
      "constant": true
    },
    {
      "inputs": [
        {
          "internalType": "uint256",
          "name": "id",
          "type": "uint256"
        }
      ],
      "name": "ownerOf",
      "outputs": [
        {
          "internalType": "address",
          "name": "owner",
          "type": "address"
        }
      ],
      "stateMutability": "view",
      "type": "function",
      "constant": true
    },
    {
      "inputs": [],
      "name": "price",
      "outputs": [
        {
          "internalType": "uint256",
          "name": "",
          "type": "uint256"
        }
      ],
      "stateMutability": "view",
      "type": "function",
      "constant": true
    },
    {
      "inputs": [
        {
          "internalType": "address",
          "name": "from",
          "type": "address"
        },
        {
          "internalType": "address",
          "name": "to",
          "type": "address"
        },
        {
          "internalType": "uint256",
          "name": "id",
          "type": "uint256"
        }
      ],
      "name": "safeTransferFrom",
      "outputs": [],
      "stateMutability": "nonpayable",
      "type": "function"
    },
    {
      "inputs": [
        {
          "internalType": "address",
          "name": "from",
          "type": "address"
        },
        {
          "internalType": "address",
          "name": "to",
          "type": "address"
        },
        {
          "internalType": "uint256",
          "name": "id",
          "type": "uint256"
        },
        {
          "internalType": "bytes",
          "name": "data",
          "type": "bytes"
        }
      ],
      "name": "safeTransferFrom",
      "outputs": [],
      "stateMutability": "nonpayable",
      "type": "function"
    },
    {
      "inputs": [
        {
          "internalType": "address",
          "name": "operator",
          "type": "address"
        },
        {
          "internalType": "bool",
          "name": "approved",
          "type": "bool"
        }
      ],
      "name": "setApprovalForAll",
      "outputs": [],
      "stateMutability": "nonpayable",
      "type": "function"
    },
    {
      "inputs": [
        {
          "internalType": "bytes4",
          "name": "interfaceId",
          "type": "bytes4"
        }
      ],
      "name": "supportsInterface",
      "outputs": [
        {
          "internalType": "bool",
          "name": "",
          "type": "bool"
        }
      ],
      "stateMutability": "pure",
      "type": "function",
      "constant": true
    },
    {
      "inputs": [
        {
          "internalType": "address",
          "name": "from",
          "type": "address"
        },
        {
          "internalType": "address",
          "name": "to",
          "type": "address"
        },
        {
          "internalType": "uint256",
          "name": "id",
          "type": "uint256"
        }
      ],
      "name": "transferFrom",
      "outputs": [],
      "stateMutability": "nonpayable",
      "type": "function"
    },
    {
      "stateMutability": "payable",
      "type": "receive",
      "payable": true
    },
    {
      "inputs": [
        {
          "internalType": "address payable",
          "name": "to",
          "type": "address"
        },
        {
          "internalType": "uint256",
          "name": "id",
          "type": "uint256"
        }
      ],
      "name": "mint",
      "outputs": [],
      "stateMutability": "payable",
      "type": "function",
      "payable": true
    },
    {
      "inputs": [
        {
          "internalType": "uint256",
          "name": "id",
          "type": "uint256"
        }
      ],
      "name": "burn",
      "outputs": [],
      "stateMutability": "nonpayable",
      "type": "function"
    }
  ],
  "bytecode": "0x608060405234801561001057600080fd5b50612115806100206000396000f3fe6080604052600436106100c65760003560e01c806342966c681161007f578063a035b1fe11610059578063a035b1fe14610286578063a22cb465146102b1578063b88d4fde146102da578063e985e9c514610303576100cd565b806342966c68146101e35780636352211e1461020c57806370a0823114610249576100cd565b806301ffc9a7146100d2578063081812fc1461010f578063095ea7b31461014c57806323b872dd1461017557806340c10f191461019e57806342842e0e146101ba576100cd565b366100cd57005b600080fd5b3480156100de57600080fd5b506100f960048036038101906100f491906115a9565b610340565b60405161010691906115f1565b60405180910390f35b34801561011b57600080fd5b5061013660048036038101906101319190611642565b610412565b60405161014391906116b0565b60405180910390f35b34801561015857600080fd5b50610173600480360381019061016e91906116f7565b6104ef565b005b34801561018157600080fd5b5061019c60048036038101906101979190611737565b6106d7565b005b6101b860048036038101906101b391906117c8565b6109c1565b005b3480156101c657600080fd5b506101e160048036038101906101dc9190611737565b610a7a565b005b3480156101ef57600080fd5b5061020a60048036038101906102059190611642565b610bb2565b005b34801561021857600080fd5b50610233600480360381019061022e9190611642565b610c5e565b60405161024091906116b0565b60405180910390f35b34801561025557600080fd5b50610270600480360381019061026b9190611808565b610d09565b60405161027d9190611844565b60405180910390f35b34801561029257600080fd5b5061029b610dc0565b6040516102a89190611844565b60405180910390f35b3480156102bd57600080fd5b506102d860048036038101906102d3919061188b565b610dcc565b005b3480156102e657600080fd5b5061030160048036038101906102fc9190611930565b610ec9565b005b34801561030f57600080fd5b5061032a600480360381019061032591906119b8565b611007565b60405161033791906115f1565b60405180910390f35b60007f80ac58cd000000000000000000000000000000000000000000000000000000007bffffffffffffffffffffffffffffffffffffffffffffffffffffffff1916827bffffffffffffffffffffffffffffffffffffffffffffffffffffffff1916148061040b57507f01ffc9a7000000000000000000000000000000000000000000000000000000007bffffffffffffffffffffffffffffffffffffffffffffffffffffffff1916827bffffffffffffffffffffffffffffffffffffffffffffffffffffffff1916145b9050919050565b60008073ffffffffffffffffffffffffffffffffffffffff1660008084815260200190815260200160002060009054906101000a900473ffffffffffffffffffffffffffffffffffffffff1673ffffffffffffffffffffffffffffffffffffffff16036104b4576040517f08c379a00000000000000000000000000000000000000000000000000000000081526004016104ab90611a55565b60405180910390fd5b6002600083815260200190815260200160002060009054906101000a900473ffffffffffffffffffffffffffffffffffffffff169050919050565b600080600083815260200190815260200160002060009054906101000a900473ffffffffffffffffffffffffffffffffffffffff1690508073ffffffffffffffffffffffffffffffffffffffff163373ffffffffffffffffffffffffffffffffffffffff1614806105e65750600360008273ffffffffffffffffffffffffffffffffffffffff1673ffffffffffffffffffffffffffffffffffffffff16815260200190815260200160002060003373ffffffffffffffffffffffffffffffffffffffff1673ffffffffffffffffffffffffffffffffffffffff16815260200190815260200160002060009054906101000a900460ff165b610625576040517f08c379a000000000000000000000000000000000000000000000000000000000815260040161061c90611ac1565b60405180910390fd5b826002600084815260200190815260200160002060006101000a81548173ffffffffffffffffffffffffffffffffffffffff021916908373ffffffffffffffffffffffffffffffffffffffff160217905550818373ffffffffffffffffffffffffffffffffffffffff168273ffffffffffffffffffffffffffffffffffffffff167f8c5be1e5ebec7d5bd14f71427d1e84f3dd0314c0f7b2291e5b200ac8c7c3b92560405160405180910390a4505050565b60008082815260200190815260200160002060009054906101000a900473ffffffffffffffffffffffffffffffffffffffff1673ffffffffffffffffffffffffffffffffffffffff168373ffffffffffffffffffffffffffffffffffffffff1614610777576040517f08c379a000000000000000000000000000000000000000000000000000000000815260040161076e90611b2d565b60405180910390fd5b600073ffffffffffffffffffffffffffffffffffffffff168273ffffffffffffffffffffffffffffffffffffffff16036107e6576040517f08c379a00000000000000000000000000000000000000000000000000000000081526004016107dd90611b99565b60405180910390fd5b6107f1833383611036565b610830576040517f08c379a000000000000000000000000000000000000000000000000000000000815260040161082790611ac1565b60405180910390fd5b600160008473ffffffffffffffffffffffffffffffffffffffff1673ffffffffffffffffffffffffffffffffffffffff168152602001908152602001600020600081548092919061088090611be8565b9190505550600160008373ffffffffffffffffffffffffffffffffffffffff1673ffffffffffffffffffffffffffffffffffffffff16815260200190815260200160002060008154809291906108d590611c11565b91905055508160008083815260200190815260200160002060006101000a81548173ffffffffffffffffffffffffffffffffffffffff021916908373ffffffffffffffffffffffffffffffffffffffff1602179055506002600082815260200190815260200160002060006101000a81549073ffffffffffffffffffffffffffffffffffffffff0219169055808273ffffffffffffffffffffffffffffffffffffffff168473ffffffffffffffffffffffffffffffffffffffff167fddf252ad1be2c89b69c2b068fc378daa952ba7f163c4a11628f55a4df523b3ef60405160405180910390a4505050565b670de0b6b3a7640000341015610a0c576040517f08c379a0000000000000000000000000000000000000000000000000000000008152600401610a0390611ca5565b60405180910390fd5b6000670de0b6b3a764000034610a229190611cc5565b90508273ffffffffffffffffffffffffffffffffffffffff166108fc829081150290604051600060405180830381858888f19350505050158015610a6a573d6000803e3d6000fd5b50610a75838361116a565b505050565b610a858383836106d7565b60008273ffffffffffffffffffffffffffffffffffffffff163b1480610b6e575063150b7a0260e01b7bffffffffffffffffffffffffffffffffffffffffffffffffffffffff19168273ffffffffffffffffffffffffffffffffffffffff1663150b7a023386856040518463ffffffff1660e01b8152600401610b0a93929190611d30565b6020604051808303816000875af1158015610b29573d6000803e3d6000fd5b505050506040513d601f19601f82011682018060405250810190610b4d9190611d8f565b7bffffffffffffffffffffffffffffffffffffffffffffffffffffffff1916145b610bad576040517f08c379a0000000000000000000000000000000000000000000000000000000008152600401610ba490611e08565b60405180910390fd5b505050565b60008082815260200190815260200160002060009054906101000a900473ffffffffffffffffffffffffffffffffffffffff1673ffffffffffffffffffffffffffffffffffffffff163373ffffffffffffffffffffffffffffffffffffffff1614610c52576040517f08c379a0000000000000000000000000000000000000000000000000000000008152600401610c4990611e74565b60405180910390fd5b610c5b81611380565b50565b600080600083815260200190815260200160002060009054906101000a900473ffffffffffffffffffffffffffffffffffffffff169050600073ffffffffffffffffffffffffffffffffffffffff168173ffffffffffffffffffffffffffffffffffffffff1603610d04576040517f08c379a0000000000000000000000000000000000000000000000000000000008152600401610cfb90611a55565b60405180910390fd5b919050565b60008073ffffffffffffffffffffffffffffffffffffffff168273ffffffffffffffffffffffffffffffffffffffff1603610d79576040517f08c379a0000000000000000000000000000000000000000000000000000000008152600401610d7090611ee0565b60405180910390fd5b600160008373ffffffffffffffffffffffffffffffffffffffff1673ffffffffffffffffffffffffffffffffffffffff168152602001908152602001600020549050919050565b670de0b6b3a764000081565b80600360003373ffffffffffffffffffffffffffffffffffffffff1673ffffffffffffffffffffffffffffffffffffffff16815260200190815260200160002060008473ffffffffffffffffffffffffffffffffffffffff1673ffffffffffffffffffffffffffffffffffffffff16815260200190815260200160002060006101000a81548160ff0219169083151502179055508173ffffffffffffffffffffffffffffffffffffffff163373ffffffffffffffffffffffffffffffffffffffff167f17307eab39ab6107e8899845ad3d59bd9653f200f220920489ca2b5937696c3183604051610ebd91906115f1565b60405180910390a35050565b610ed48585856106d7565b60008473ffffffffffffffffffffffffffffffffffffffff163b1480610fc1575063150b7a0260e01b7bffffffffffffffffffffffffffffffffffffffffffffffffffffffff19168473ffffffffffffffffffffffffffffffffffffffff1663150b7a0233888787876040518663ffffffff1660e01b8152600401610f5d959493929190611f4d565b6020604051808303816000875af1158015610f7c573d6000803e3d6000fd5b505050506040513d601f19601f82011682018060405250810190610fa09190611d8f565b7bffffffffffffffffffffffffffffffffffffffffffffffffffffffff1916145b611000576040517f08c379a0000000000000000000000000000000000000000000000000000000008152600401610ff790611e08565b60405180910390fd5b5050505050565b60036020528160005260406000206020528060005260406000206000915091509054906101000a900460ff1681565b60008373ffffffffffffffffffffffffffffffffffffffff168373ffffffffffffffffffffffffffffffffffffffff1614806110f85750600360008573ffffffffffffffffffffffffffffffffffffffff1673ffffffffffffffffffffffffffffffffffffffff16815260200190815260200160002060008473ffffffffffffffffffffffffffffffffffffffff1673ffffffffffffffffffffffffffffffffffffffff16815260200190815260200160002060009054906101000a900460ff165b8061116157506002600083815260200190815260200160002060009054906101000a900473ffffffffffffffffffffffffffffffffffffffff1673ffffffffffffffffffffffffffffffffffffffff168373ffffffffffffffffffffffffffffffffffffffff16145b90509392505050565b600073ffffffffffffffffffffffffffffffffffffffff168273ffffffffffffffffffffffffffffffffffffffff16036111d9576040517f08c379a00000000000000000000000000000000000000000000000000000000081526004016111d090611fe7565b60405180910390fd5b600073ffffffffffffffffffffffffffffffffffffffff1660008083815260200190815260200160002060009054906101000a900473ffffffffffffffffffffffffffffffffffffffff1673ffffffffffffffffffffffffffffffffffffffff161461127a576040517f08c379a000000000000000000000000000000000000000000000000000000000815260040161127190612053565b60405180910390fd5b600160008373ffffffffffffffffffffffffffffffffffffffff1673ffffffffffffffffffffffffffffffffffffffff16815260200190815260200160002060008154809291906112ca90611c11565b91905055508160008083815260200190815260200160002060006101000a81548173ffffffffffffffffffffffffffffffffffffffff021916908373ffffffffffffffffffffffffffffffffffffffff160217905550808273ffffffffffffffffffffffffffffffffffffffff16600073ffffffffffffffffffffffffffffffffffffffff167fddf252ad1be2c89b69c2b068fc378daa952ba7f163c4a11628f55a4df523b3ef60405160405180910390a45050565b600080600083815260200190815260200160002060009054906101000a900473ffffffffffffffffffffffffffffffffffffffff169050600073ffffffffffffffffffffffffffffffffffffffff168173ffffffffffffffffffffffffffffffffffffffff1603611426576040517f08c379a000000000000000000000000000000000000000000000000000000000815260040161141d906120bf565b60405180910390fd5b60018060008373ffffffffffffffffffffffffffffffffffffffff1673ffffffffffffffffffffffffffffffffffffffff16815260200190815260200160002060008282546114759190611cc5565b9250508190555060008083815260200190815260200160002060006101000a81549073ffffffffffffffffffffffffffffffffffffffff02191690556002600083815260200190815260200160002060006101000a81549073ffffffffffffffffffffffffffffffffffffffff021916905581600073ffffffffffffffffffffffffffffffffffffffff168273ffffffffffffffffffffffffffffffffffffffff167fddf252ad1be2c89b69c2b068fc378daa952ba7f163c4a11628f55a4df523b3ef60405160405180910390a45050565b600080fd5b600080fd5b60007fffffffff0000000000000000000000000000000000000000000000000000000082169050919050565b61158681611551565b811461159157600080fd5b50565b6000813590506115a38161157d565b92915050565b6000602082840312156115bf576115be611547565b5b60006115cd84828501611594565b91505092915050565b60008115159050919050565b6115eb816115d6565b82525050565b600060208201905061160660008301846115e2565b92915050565b6000819050919050565b61161f8161160c565b811461162a57600080fd5b50565b60008135905061163c81611616565b92915050565b60006020828403121561165857611657611547565b5b60006116668482850161162d565b91505092915050565b600073ffffffffffffffffffffffffffffffffffffffff82169050919050565b600061169a8261166f565b9050919050565b6116aa8161168f565b82525050565b60006020820190506116c560008301846116a1565b92915050565b6116d48161168f565b81146116df57600080fd5b50565b6000813590506116f1816116cb565b92915050565b6000806040838503121561170e5761170d611547565b5b600061171c858286016116e2565b925050602061172d8582860161162d565b9150509250929050565b6000806000606084860312156117505761174f611547565b5b600061175e868287016116e2565b935050602061176f868287016116e2565b92505060406117808682870161162d565b9150509250925092565b60006117958261166f565b9050919050565b6117a58161178a565b81146117b057600080fd5b50565b6000813590506117c28161179c565b92915050565b600080604083850312156117df576117de611547565b5b60006117ed858286016117b3565b92505060206117fe8582860161162d565b9150509250929050565b60006020828403121561181e5761181d611547565b5b600061182c848285016116e2565b91505092915050565b61183e8161160c565b82525050565b60006020820190506118596000830184611835565b92915050565b611868816115d6565b811461187357600080fd5b50565b6000813590506118858161185f565b92915050565b600080604083850312156118a2576118a1611547565b5b60006118b0858286016116e2565b92505060206118c185828601611876565b9150509250929050565b600080fd5b600080fd5b600080fd5b60008083601f8401126118f0576118ef6118cb565b5b8235905067ffffffffffffffff81111561190d5761190c6118d0565b5b602083019150836001820283011115611929576119286118d5565b5b9250929050565b60008060008060006080868803121561194c5761194b611547565b5b600061195a888289016116e2565b955050602061196b888289016116e2565b945050604061197c8882890161162d565b935050606086013567ffffffffffffffff81111561199d5761199c61154c565b5b6119a9888289016118da565b92509250509295509295909350565b600080604083850312156119cf576119ce611547565b5b60006119dd858286016116e2565b92505060206119ee858286016116e2565b9150509250929050565b600082825260208201905092915050565b7f746f6b656e20646f65736e277420657869737400000000000000000000000000600082015250565b6000611a3f6013836119f8565b9150611a4a82611a09565b602082019050919050565b60006020820190508181036000830152611a6e81611a32565b9050919050565b7f6e6f7420617574686f72697a6564000000000000000000000000000000000000600082015250565b6000611aab600e836119f8565b9150611ab682611a75565b602082019050919050565b60006020820190508181036000830152611ada81611a9e565b9050919050565b7f66726f6d20213d206f776e657200000000000000000000000000000000000000600082015250565b6000611b17600d836119f8565b9150611b2282611ae1565b602082019050919050565b60006020820190508181036000830152611b4681611b0a565b9050919050565b7f7472616e7366657220746f207a65726f20616464726573730000000000000000600082015250565b6000611b836018836119f8565b9150611b8e82611b4d565b602082019050919050565b60006020820190508181036000830152611bb281611b76565b9050919050565b7f4e487b7100000000000000000000000000000000000000000000000000000000600052601160045260246000fd5b6000611bf38261160c565b915060008203611c0657611c05611bb9565b5b600182039050919050565b6000611c1c8261160c565b91507fffffffffffffffffffffffffffffffffffffffffffffffffffffffffffffffff8203611c4e57611c4d611bb9565b5b600182019050919050565b7f6e6f7420656e6f756768206d6f6e657900000000000000000000000000000000600082015250565b6000611c8f6010836119f8565b9150611c9a82611c59565b602082019050919050565b60006020820190508181036000830152611cbe81611c82565b9050919050565b6000611cd08261160c565b9150611cdb8361160c565b9250828203905081811115611cf357611cf2611bb9565b5b92915050565b600082825260208201905092915050565b50565b6000611d1a600083611cf9565b9150611d2582611d0a565b600082019050919050565b6000608082019050611d4560008301866116a1565b611d5260208301856116a1565b611d5f6040830184611835565b8181036060830152611d7081611d0d565b9050949350505050565b600081519050611d898161157d565b92915050565b600060208284031215611da557611da4611547565b5b6000611db384828501611d7a565b91505092915050565b7f756e7361666520726563697069656e7400000000000000000000000000000000600082015250565b6000611df26010836119f8565b9150611dfd82611dbc565b602082019050919050565b60006020820190508181036000830152611e2181611de5565b9050919050565b7f6e6f74206f776e65720000000000000000000000000000000000000000000000600082015250565b6000611e5e6009836119f8565b9150611e6982611e28565b602082019050919050565b60006020820190508181036000830152611e8d81611e51565b9050919050565b7f6f776e6572203d207a65726f2061646472657373000000000000000000000000600082015250565b6000611eca6014836119f8565b9150611ed582611e94565b602082019050919050565b60006020820190508181036000830152611ef981611ebd565b9050919050565b82818337600083830152505050565b6000601f19601f8301169050919050565b6000611f2c8385611cf9565b9350611f39838584611f00565b611f4283611f0f565b840190509392505050565b6000608082019050611f6260008301886116a1565b611f6f60208301876116a1565b611f7c6040830186611835565b8181036060830152611f8f818486611f20565b90509695505050505050565b7f6d696e7420746f207a65726f2061646472657373000000000000000000000000600082015250565b6000611fd16014836119f8565b9150611fdc82611f9b565b602082019050919050565b6000602082019050818103600083015261200081611fc4565b9050919050565b7f616c7265616479206d696e746564000000000000000000000000000000000000600082015250565b600061203d600e836119f8565b915061204882612007565b602082019050919050565b6000602082019050818103600083015261206c81612030565b9050919050565b7f6e6f74206d696e74656400000000000000000000000000000000000000000000600082015250565b60006120a9600a836119f8565b91506120b482612073565b602082019050919050565b600060208201905081810360008301526120d88161209c565b905091905056fea2646970667358221220ddfd31b950125e0b1db7f4f047f7fe18d151cf89290e3db94ea11a53e8e9fb8564736f6c63430008110033",
  "immutableReferences": {},
  "source": "pragma solidity ^0.8.13;\n\nimport \"./ERC721.sol\";\n\ncontract MyNFT is ERC721 {\n    uint constant public price = 1 ether;\n\n    function mint(address payable to, uint id) external payable {\n        require(msg.value >= price, \"not enough money\");\n        uint rest = msg.value - price;\n        to.transfer(rest);\n        _mint(to, id);\n    }\n\n    function burn(uint id) external {\n        require(msg.sender == _ownerOf[id], \"not owner\");\n        _burn(id);\n    }\n\n    receive() external payable {}\n}\n",
  "sourcePath": "/home/wutianqi/PycharmProjects/myNFT/contracts/MyNFT.sol",
  "compiler": {
    "name": "solc",
    "version": "0.8.17+commit.8df45f5f.Emscripten.clang"
  },
  "schemaVersion": "3.4.9",
  "updatedAt": "2023-04-09T03:28:22.241Z",
  "networkType": "ethereum",
  "devdoc": {
    "kind": "dev",
    "methods": {},
    "version": 1
  },
  "userdoc": {
    "kind": "user",
    "methods": {},
    "version": 1
  }
}